{
    "contractName": "CarSale",
    "abi": [
        {
            "inputs": [],
            "stateMutability": "nonpayable",
            "type": "constructor"
        },
        {
            "inputs": [
                {
                    "internalType": "uint256",
                    "name": "_index",
                    "type": "uint256"
                }
            ],
            "name": "buyCar",
            "outputs": [],
            "stateMutability": "payable",
            "type": "function"
        },
        {
            "inputs": [
                {
                    "internalType": "uint256",
                    "name": "_index",
                    "type": "uint256"
                },
                {
                    "internalType": "string",
                    "name": "_name",
                    "type": "string"
                },
                {
                    "internalType": "string",
                    "name": "_image",
                    "type": "string"
                },
                {
                    "internalType": "string",
                    "name": "_description",
                    "type": "string"
                },
                {
                    "internalType": "string",
                    "name": "_location",
                    "type": "string"
                },
                {
                    "internalType": "uint256",
                    "name": "_price",
                    "type": "uint256"
                },
                {
                    "internalType": "uint256",
                    "name": "_mileage",
                    "type": "uint256"
                }
            ],
            "name": "editCar",
            "outputs": [],
            "stateMutability": "nonpayable",
            "type": "function"
        },
        {
            "inputs": [],
            "name": "getCarLength",
            "outputs": [
                {
                    "internalType": "uint256",
                    "name": "",
                    "type": "uint256"
                }
            ],
            "stateMutability": "view",
            "type": "function"
        },
        {
            "inputs": [
                {
                    "internalType": "uint256",
                    "name": "_index",
                    "type": "uint256"
                }
            ],
            "name": "readCar",
            "outputs": [
                {
                    "internalType": "address payable",
                    "name": "",
                    "type": "address"
                },
                {
                    "internalType": "string",
                    "name": "",
                    "type": "string"
                },
                {
                    "internalType": "string",
                    "name": "",
                    "type": "string"
                },
                {
                    "internalType": "string",
                    "name": "",
                    "type": "string"
                },
                {
                    "internalType": "string",
                    "name": "",
                    "type": "string"
                },
                {
                    "internalType": "uint256",
                    "name": "",
                    "type": "uint256"
                },
                {
                    "internalType": "uint256",
                    "name": "",
                    "type": "uint256"
                },
                {
                    "internalType": "uint256",
                    "name": "",
                    "type": "uint256"
                }
            ],
            "stateMutability": "view",
            "type": "function"
        },
        {
            "inputs": [
                {
                    "internalType": "string",
                    "name": "_name",
                    "type": "string"
                },
                {
                    "internalType": "string",
                    "name": "_image",
                    "type": "string"
                },
                {
                    "internalType": "string",
                    "name": "_description",
                    "type": "string"
                },
                {
                    "internalType": "string",
                    "name": "_location",
                    "type": "string"
                },
                {
                    "internalType": "uint256",
                    "name": "_price",
                    "type": "uint256"
                },
                {
                    "internalType": "uint256",
                    "name": "_mileage",
                    "type": "uint256"
                },
                {
                    "internalType": "uint256",
                    "name": "_sales",
                    "type": "uint256"
                }
            ],
            "name": "writeCar",
            "outputs": [],
            "stateMutability": "nonpayable",
            "type": "function"
        }
    ],
    "bytecode": "60806040526000805534801561001457600080fd5b50600180546001600160a01b031990811673874069fa1eb16d44d622f2e0ca25eea172369bc1179091556002805490911633179055610bae806100586000396000f3fe60806040526004361061004a5760003560e01c80631ae97bd21461004f578063443d9738146100715780635645a557146100ae5780636c231060146100cc578063f1cb7f90146100df575b600080fd5b34801561005b57600080fd5b5061006f61006a36600461084a565b6100ff565b005b34801561007d57600080fd5b5061009161008c366004610912565b610211565b6040516100a5989796959493929190610978565b60405180910390f35b3480156100ba57600080fd5b506000546040519081526020016100a5565b61006f6100da366004610912565b6104b7565b3480156100eb57600080fd5b5061006f6100fa3660046109fa565b6105ba565b604080516101008101825233815260208082018a81528284018a9052606083018990526080830188905260a0830187905260c0830186905260e083018590526000805481526003835293909320825181546001600160a01b0319166001600160a01b039091161781559251805192939261017f926001850192019061070e565b506040820151805161019b91600284019160209091019061070e565b50606082015180516101b791600384019160209091019061070e565b50608082015180516101d391600484019160209091019061070e565b5060a0820151600582015560c0820151600682015560e09091015160079091015560008054908061020383610ada565b919050555050505050505050565b6000606080606080600080600080600360008b815260200190815260200160002090508060000160009054906101000a90046001600160a01b03168160010182600201836003018460040185600501548660060154876007015486805461027790610af5565b80601f01602080910402602001604051908101604052809291908181526020018280546102a390610af5565b80156102f05780601f106102c5576101008083540402835291602001916102f0565b820191906000526020600020905b8154815290600101906020018083116102d357829003601f168201915b5050505050965085805461030390610af5565b80601f016020809104026020016040519081016040528092919081815260200182805461032f90610af5565b801561037c5780601f106103515761010080835404028352916020019161037c565b820191906000526020600020905b81548152906001019060200180831161035f57829003601f168201915b5050505050955084805461038f90610af5565b80601f01602080910402602001604051908101604052809291908181526020018280546103bb90610af5565b80156104085780601f106103dd57610100808354040283529160200191610408565b820191906000526020600020905b8154815290600101906020018083116103eb57829003601f168201915b5050505050945083805461041b90610af5565b80601f016020809104026020016040519081016040528092919081815260200182805461044790610af5565b80156104945780601f1061046957610100808354040283529160200191610494565b820191906000526020600020905b81548152906001019060200180831161047757829003601f168201915b505050505093509850985098509850985098509850985050919395975091939597565b600081815260036020526040908190206001548154600583015493516323b872dd60e01b81523360048201526001600160a01b039182166024820152604481019490945291929116906323b872dd90606401602060405180830381600087803b15801561052357600080fd5b505af1158015610537573d6000803e3d6000fd5b505050506040513d601f19601f8201168201806040525081019061055b9190610b30565b61059f5760405162461bcd60e51b815260206004820152601060248201526f2a3930b739b332b9103330b4b632b21760811b60448201526064015b60405180910390fd5b6007810180549060006105b183610ada565b91905055505050565b6105c26106a2565b600087815260036020526040902080546001600160a01b03166106275760405162461bcd60e51b815260206004820152601860248201527f20546869732063617220646f6573206e6f7420657869737400000000000000006044820152606401610596565b865161063c90600183019060208a019061070e565b508551610652906002830190602089019061070e565b508451610668906003830190602088019061070e565b50835161067e906004830190602087019061070e565b5061069183670de0b6b3a7640000610b59565b600582015560060155505050505050565b6002546001600160a01b0316331461070c5760405162461bcd60e51b815260206004820152602760248201527f46756e6374696f6e2063616e206f6e6c792062652061636365737365642062796044820152661037bbb732b91760c91b6064820152608401610596565b565b82805461071a90610af5565b90600052602060002090601f01602090048101928261073c5760008555610782565b82601f1061075557805160ff1916838001178555610782565b82800160010185558215610782579182015b82811115610782578251825591602001919060010190610767565b5061078e929150610792565b5090565b5b8082111561078e5760008155600101610793565b634e487b7160e01b600052604160045260246000fd5b600082601f8301126107ce57600080fd5b813567ffffffffffffffff808211156107e9576107e96107a7565b604051601f8301601f19908116603f01168101908282118183101715610811576108116107a7565b8160405283815286602085880101111561082a57600080fd5b836020870160208301376000602085830101528094505050505092915050565b600080600080600080600060e0888a03121561086557600080fd5b873567ffffffffffffffff8082111561087d57600080fd5b6108898b838c016107bd565b985060208a013591508082111561089f57600080fd5b6108ab8b838c016107bd565b975060408a01359150808211156108c157600080fd5b6108cd8b838c016107bd565b965060608a01359150808211156108e357600080fd5b506108f08a828b016107bd565b979a969950949760808101359660a0820135965060c090910135945092505050565b60006020828403121561092457600080fd5b5035919050565b6000815180845260005b8181101561095157602081850181015186830182015201610935565b81811115610963576000602083870101525b50601f01601f19169290920160200192915050565b6001600160a01b03891681526101006020820181905260009061099d8382018b61092b565b905082810360408401526109b1818a61092b565b905082810360608401526109c5818961092b565b905082810360808401526109d9818861092b565b60a0840196909652505060c081019290925260e09091015295945050505050565b600080600080600080600060e0888a031215610a1557600080fd5b87359650602088013567ffffffffffffffff80821115610a3457600080fd5b610a408b838c016107bd565b975060408a0135915080821115610a5657600080fd5b610a628b838c016107bd565b965060608a0135915080821115610a7857600080fd5b610a848b838c016107bd565b955060808a0135915080821115610a9a57600080fd5b50610aa78a828b016107bd565b93505060a0880135915060c0880135905092959891949750929550565b634e487b7160e01b600052601160045260246000fd5b6000600019821415610aee57610aee610ac4565b5060010190565b600181811c90821680610b0957607f821691505b60208210811415610b2a57634e487b7160e01b600052602260045260246000fd5b50919050565b600060208284031215610b4257600080fd5b81518015158114610b5257600080fd5b9392505050565b6000816000190483118215151615610b7357610b73610ac4565b50029056fea26469706673582212209b278eb65c414659dd79a216c3034ed0d7e34562297cd0ed1b6fe12bdc8374cb64736f6c63430008090033",
    "sourcePath": "c:/Users/PC/Desktop/work/dacade/motogari/contract/carSale.sol",
    "compiler": {
        "name": "solc",
        "version": "0.8.9+commit.e5eed63a"
    },
    "functionHashes": {
        "buyCar(uint256)": "6c231060",
        "editCar(uint256,string,string,string,string,uint256,uint256)": "f1cb7f90",
        "getCarLength()": "5645a557",
        "readCar(uint256)": "443d9738",
        "writeCar(string,string,string,string,uint256,uint256,uint256)": "1ae97bd2"
    },
    "gasEstimates": {
        "creation": {
            "codeDepositCost": "598000",
            "executionCost": "54106",
            "totalCost": "652106"
        },
        "external": {
            "buyCar(uint256)": "infinite",
            "editCar(uint256,string,string,string,string,uint256,uint256)": "infinite",
            "getCarLength()": "2302",
            "readCar(uint256)": "infinite",
            "writeCar(string,string,string,string,uint256,uint256,uint256)": "infinite"
        },
        "internal": {
            "isAdmin()": "infinite"
        }
    }
}